:020000040800F2
:1000000000200020F1430008C92C0008CB2C000878
:1000100000000000000000000000000000000000E0
:10002000000000000000000000000000CD2C0008CF
:100030000000000000000000CF2C0008D12C0008B8
:10004000414400084144000841440008414400087C
:10005000414400084144000841440008414400086C
:10006000414400084144000841440008414400085C
:10007000414400084144000841440008414400084C
:1000800041440008414400080000000041440008C9
:10009000414400084144000841440008414400082C
:1000A000414400084144000841440008414400081C
:1000B0004144000800000000414400080000000026
:1000C00010B5064C2378002B07D1054B002B02D02E
:1000D000044800E000BF0123237010BDDC010020B4
:1000E0000000000030740008044B10B5002B03D052
:1000F0000349044800E000BF10BDC04600000000F6
:10010000E0010020307400080023C25C0133002AA3
:10011000FBD1581E7047000002B4714649084900DF
:10012000095C49008E4402BC7047C04603B4714666
:10013000490840004900095E49008E4403BC7047ED
:10014000002243088B4274D303098B425FD3030A16
:100150008B4244D3030B8B4228D3030C8B420DD329
:10016000FF22090212BA030C8B4202D312120902B7
:1001700065D0030B8B4219D300E0090AC30B8B42F5
:1001800001D3CB03C01A5241830B8B4201D38B03A3
:10019000C01A5241430B8B4201D34B03C01A524148
:1001A000030B8B4201D30B03C01A5241C30A8B428B
:1001B00001D3CB02C01A5241830A8B4201D38B0276
:1001C000C01A5241430A8B4201D34B02C01A52411A
:1001D000030A8B4201D30B02C01A5241CDD2C3098C
:1001E0008B4201D3CB01C01A524183098B4201D308
:1001F0008B01C01A524143098B4201D34B01C01AF3
:10020000524103098B4201D30B01C01A5241C3086A
:100210008B4201D3CB00C01A524183088B4201D3D9
:100220008B00C01A524143088B4201D34B00C01AC5
:100230005241411A00D20146524110467047FFE731
:1002400001B5002000F0F0F802BDC0460029F7D04B
:1002500076E7704703460B437FD4002243088B4266
:1002600074D303098B425FD3030A8B4244D3030B3D
:100270008B4228D3030C8B420DD3FF22090212BA02
:10028000030C8B4202D31212090265D0030B8B427E
:1002900019D300E0090AC30B8B4201D3CB03C01A68
:1002A0005241830B8B4201D38B03C01A5241430B43
:1002B0008B4201D34B03C01A5241030B8B4201D333
:1002C0000B03C01A5241C30A8B4201D3CB02C01A9E
:1002D0005241830A8B4201D38B02C01A5241430A16
:1002E0008B4201D34B02C01A5241030A8B4201D305
:1002F0000B02C01A5241CDD2C3098B4201D3CB01AC
:10030000C01A524183098B4201D38B01C01A52415A
:1003100043098B4201D34B01C01A524103098B425E
:1003200001D30B01C01A5241C3088B4201D3CB0049
:10033000C01A524183088B4201D38B00C01A52412C
:1003400043088B4201D34B00C01A5241411A00D2DC
:1003500001465241104670475DE0CA0F00D0494245
:10036000031000D34042534000229C4603098B42B5
:100370002DD3030A8B4212D3FC22890112BA030A3D
:100380008B420CD3890192118B4208D389019211BF
:100390008B4204D389013AD0921100E08909C30944
:1003A0008B4201D3CB01C01A524183098B4201D346
:1003B0008B01C01A524143098B4201D34B01C01A31
:1003C000524103098B4201D30B01C01A5241C308A9
:1003D0008B4201D3CB00C01A524183088B4201D318
:1003E0008B00C01A5241D9D243088B4201D34B0033
:1003F000C01A5241411A00D20146634652415B1075
:10040000104601D34042002B00D549427047634655
:100410005B1000D3404201B5002000F005F802BD9A
:100420000029F8D016E770477047C0468446100090
:1004300062468C461900634600E0C0461FB500F0D6
:100440000DFF002801D40021C8421FBD10B500F0E7
:100450005DFE4042013010BD10B500F0FFFE0028E7
:1004600001DB002010BD012010BDC04610B500F01A
:10047000F5FE002801DD002010BD012010BDC046A2
:1004800010B500F085FE002801DC002010BD012021
:1004900010BDC04610B500F07BFE002801DA002038
:1004A00010BD012010BDC046F0B54F464646D646A9
:1004B0000D000400C0B51F0011002803620F400AA0
:1004C00010437A00520DE3003C039146640AFA0F90
:1004D0004F0F6E0027439246B846760DED0FC900C8
:1004E000954200D199E04C46341BA446002C00DC18
:1004F0007CE04A46002A00D1B8E0C54A964200D1C5
:100500001CE180223C0012041443A0466246382AB3
:1005100000DD61E11F2A00DDCCE164462022121BD0
:10052000444694400F00A14664469140E7404C4643
:100530004A1E91413C43424621436446E240801AB0
:100540005C1AA3429B415F42C71B3B0200D4D0E030
:100550007F027F0A002F00D1FFE0380001F08CFD00
:1005600001000839202322005B1A8F40DA408C40BA
:100570001743B14200DAFFE0891B4B1C1F2B00DD43
:10058000A8E020223900D21A200094409140D8409F
:10059000621E9441DF40002601430C43630709D0EB
:1005A0000F232340042B05D0231DA342A441644202
:1005B0003F191C003B0200D49EE0954B01369E4241
:1005C00000D1B7E0934AE40817407B0771057F022A
:1005D00023433F0B4A0D12053A43ED072A43180007
:1005E0001100E0BCBA46B146A846F0BD002C4BD085
:1005F0004C46A41BA446002E00D023E104001C435B
:1006000000D1AFE16246541E012A00D115E2804DAF
:10061000AC4500D1C8E1A4461BE14A46B21A944653
:10062000002A00DCACE04A46002A43D0784A9642D1
:1006300000D1AFE180223C0012041443A046624680
:10064000382A67DC1F2A00DC5FE14746203AD740A2
:100650006246202A05D064464022121B444694403C
:1006600021434A1E91410C003C4357E03A000A43A3
:1006700000D105E12200013A012C00D182E1644C55
:10068000A4455BD0944641E7634C771C274200D0D9
:10069000C4E004001C43002E00D069E1002C00D10E
:1006A000BFE144460C4300D0D0E14207DB081343CE
:1006B000C00829E03A000A4300D170E1624664466E
:1006C000013A012C00D1E0E0514CA44500D161E198
:1006D0009446B4E73A001F39CA401100202B03D0DA
:1006E0004022D31A9F403C43631E9C4100270026B2
:1006F0000C43630700D053E7B446E4087B07234369
:10070000F808434A94451DD06246070352053F0B43
:10071000520D60E744460C43621E9441E4189C422B
:100720009B415F423F183B02E3D5394B01369E4265
:1007300000D0B5E03200002700234CE74207DB0879
:100740001343C0081A00024300D1E1E180273F03B0
:1007500007433F032E4A3F0B3DE7200001F08CFC8E
:10076000010018311F2900DCFCE60838844027000E
:100770000024B14200DBFFE6264A761A17400DE757
:10078000002A2FD04A46921B9446002E00D1ADE09D
:100790001F4A914500D10FE18022120410436246A6
:1007A000382A00DD0FE11F2A00DD80E164462022A7
:1007B0001E00121B6746040093409440FE405A1EE0
:1007C0009341F84034431C43804464188C42BF4139
:1007D0007F424E464744A6E742460A4311004A1E5E
:1007E0009141ADE60C4C721C224200D0A1E0020007
:1007F0001A43002E00D0FAE0002A00D145E13A0069
:100800000A4300D046E14207DB081343C0087BE7F8
:10081000FF070000FFFF7FFFFE07000047465C1A4E
:10082000C21BA342BF417F42B94617004A46BF1AC6
:100830003A0200D58DE023003B4300D08AE6002039
:10084000002561E7B44CA14500D1ADE0802424042B
:1008500020436446382C3DDC62461F2C00DDB7E0A7
:1008600020251E002D1B0400AB40AC40D640D040DC
:1008700042465D1EAB413443121A904623432CE09E
:100880004207DB081343C0083BE75C189C429B41CE
:1008900040445B42C71801263B0200D429E70226E8
:1008A0009E4A63081740012214401C43FB071C4367
:1008B0007F0873E64446203AD4406246202A05D099
:1008C00067464022D21B4746974039434A1E914112
:1008D000214335E60343581E8341CC1AA142BF4150
:1008E00043467F4255464E46DF1B2EE602001A4322
:1008F00000D1BDE062466446013A012C00D1E5E03A
:10090000854CA44558D0944649E764462022121BE2
:10091000444694400F00A14664469140E7404C464F
:100920004A1E91413C4342460C436146CA408018EE
:10093000F4E6794CA24200D1FDE6591899429B4158
:1009400040445F42C719FC07490816000C437F0862
:10095000CFE6CC1AA142BF4143467F42181A554602
:10096000C71BF7E5C9087B0755460B43F808C8E6DF
:10097000002C00D081E043460B4315D18020002598
:100980000003E3E65C1AA3429B41C71B5B420126BE
:10099000FF1ADAE54207DB081343C008D2E6420734
:1009A000DB081343C008ACE643464246C9085B0770
:1009B00055460B43D008C5E6434642465B07C90887
:1009C0000B43D008BEE603431C00631E9C41FCE6BB
:1009D0000200203CE24014006246202A03D0402559
:1009E000AD1AA8400343581E8341234375E7002AEC
:1009F000E2D03A000A43CDD04207DB0813438022FD
:100A0000C0081203104206D0FC08144203D1200093
:100A1000CB087A0713435A0FDB005207DB08134356
:100A200090E643460B4300D109E743464246C908D6
:100A30005B0755460B43D00866E6CC1AA1428941B4
:100A40003F1A4942554601267F1A7EE542465C1A06
:100A5000871AA34292415242BF1A3A023DD5CC1A9C
:100A6000A1428941434649421F1A55467F1A95E5DE
:100A70007B07C9080B43F80843E64446DB080C43F0
:100A800030D142071343C0085CE67B07C9080B431B
:100A9000F80839E65C189C429B4140445B42C71809
:100AA0003B0200D425E61D4B01261F4021E6040031
:100AB000203AD4406246202A04D040226646921B47
:100AC000904003435A1E93411C437EE65C188C42BF
:100AD0008941404449424718DDE623003B4300D1A9
:100AE000ADE606E6440723438024C00824032042E1
:100AF00008D04246D608264204D155463000CB08DD
:100B000051070B435A0FDB00DB085207134319E66A
:100B10000023014A1F005EE5FF070000FFFF7FFF83
:100B2000F0B557464E464546DE46E0B581460500DF
:100B30000C03480092461F0085B0240B400DCE0FD9
:100B4000002800D156E1D44B984200D172E16B0FDE
:100B5000E4001C4380231B0423439846CF4BED0045
:100B60009B4600239946834400933C037B005046F8
:100B7000240B5B0DFF0F002B00D11FE1C64A9342EF
:100B800000D162E1C549420F8C46E4005946144346
:100B9000802263441204CB1A14439B46C2000020F7
:100BA00033007B409A464B460F2B27D8BC499B000D
:100BB000CB589F46B246009B022B16D0032B00D188
:100BC0008EE2012B00D0D9E00023002400255246FC
:100BD0001B052343D20713432800190005B0F0BCBE
:100BE000BB46B246A946A046F0BD00240025AA4B4C
:100BF000EDE7BA46A04615000090DCE7444500D278
:100C0000C7E100D1C2E101235B429C462E00404671
:100C10000025E3442302140E1C431B0C99462304B5
:100C20001F0C1202494600920197FFF70FFB0200CA
:100C30007A430B04310C804619438A4207D90123B9
:100C40005B429C460919E0448C4200D807E2881AAE
:100C50004946FFF7FBFA09048C4631046646019ABF
:100C6000090C4243030031438A4204D90919013B6C
:100C70008C4200D8EDE1881A424612041A4390468D
:100C80004146009B0E041B0C1F000293009B360C78
:100C90001B04190C0B007343120C7E430391514348
:100CA0007A431F0CBC4676186644B14203D98021B2
:100CB00049028C466244310C8A1831041E04360CF9
:100CC0008E19904202D312D1B54210D24346591E1A
:100CD000009B9C4665441F009D429B415B421B1943
:100CE000C018844200D2A0E100D19BE18846AE1B2F
:100CF000B542AD41801A6D42401B844200D1D5E11E
:100D00004946FFF7A3FA019A0B044243310C050050
:100D100019438A4200D96CE1881A4946FFF796FACE
:100D2000019A360442430904360C03000E43B242D2
:100D300000D953E10398B61A02002D041D43029F07
:100D40002B041B0C5A437B439C46290C4843130C31
:100D5000844463447943984203D980204002844606
:100D60006144180C12041B04120C41189B188E428B
:100D700000D2FFE000D1FAE001231D43494A5A4462
:100D8000002A00DCAAE06B0700D03DE1ED084346F5
:100D9000DB0106D54246444B1A4090468022D200E1
:100DA0005A44424B9A4200DD1FE743465B071D430E
:100DB000434652055C02240B530D08E7524622437A
:100DC00000D17BE0002C00D1FAE0200001F054F9C2
:100DD00002000B3A1D2301009B1A52460839DA40E3
:100DE0008C40144352468A40314B58449B468344BE
:100DF0000020D5E64B462343984644D0002C00D132
:100E0000CEE0200001F038F9010002000B391D236B
:100E10005B1A49461000D940083884400B004D4603
:100E20002343984685402348831A9B4600239946CE
:100E300000939AE64B46234398461DD108239946D2
:100E4000063B0025834600938FE65246224309D194
:100E5000022349461943184B89469C460024022028
:100E6000E3449DE603234A461A43134B91469C46AE
:100E700052460320E34493E60C239946093BA046DF
:100E80008346009371E60423994600239B46013371
:100E90000025009369E6C046FF07000001FCFFFF44
:100EA00008750008FF030000FFFFFFFEFE070000BB
:100EB000F30300000DFCFFFF01F8FFFF494601238B
:100EC00019438946002401206AE6002380249A46BB
:100ED00000258A4B24037AE601256D4201239B1AE3
:100EE000382B00DD70E61F2B00DCBFE01F214942DC
:100EF0008A1A4146D1400A00202B04D04146804B3B
:100F00005B4499400D436B1E9D4107232A431D00FE
:100F100000241540134200D1D4E00F2100231140DA
:100F2000042900D1CBE0111D9142924152429B18FD
:100F30000A00190200D4C2E001230024002546E67D
:100F4000802341461B03194208D01C4206D11C4392
:100F50002403BA461500694B240B38E68024434627
:100F600024031C432403B246644B240B2FE6002BBE
:100F700000D103E7A619681EA64200D28DE08E427A
:100F800000D2A3E000D1B3E00500F5E6AA4200D903
:100F900039E64346DE0758086B081E43ED0739E67D
:100FA000484601F069F801000200153120321C2981
:100FB00000DC2CE74B46083883400025984632E792
:100FC00001F05AF803001A00153220301C2A00DC08
:100FD00000E75446083B00229C4005E73619013BD8
:100FE000B44200D9A6E6B24200D8A3E6831E361961
:100FF000A0E60919013D8C4200D98DE68A4200D84D
:101000008AE6851E091987E60F232B40042B00D1A1
:10101000BCE605235B42AB429B4104355B42ED08D5
:101020009844B4E6AF4200D960E6824204D800D0CA
:101030005CE6AE4200D859E602235B429C46009B28
:10104000E0449C4665449D429B415B421B19C0188D
:101050004DE68A4200D80EE6831E09190BE68A4245
:1010600000D8F4E5831E98460919F0E525492800C3
:1010700059448D4042468A40691E8D414146D840C0
:10108000D94002432A430B00510700D151E70F21F9
:101090001140042900D046E74BE705008E4200D0FE
:1010A0006AE6009A934200D066E667E6164A5A441A
:1010B000002A00DC10E701230025984467E65D075D
:1010C0005B021C0BD2080023154380E50098023D0B
:1010D00042008242BF417F423C1936190092DDE74F
:1010E0008024434624031C432403044B240B6EE555
:1010F000009A9A42EAD30500D3E7C046FF070000F2
:101100003E0400001E040000FF030000F0B54E4640
:101110004546DE4657469046E0B517001A03120BC7
:101120000500844619480E034C0091465A00DB0F17
:101130009B46360B640DC90F520D844219D0824272
:1011400010D0012094420ED14E450CD10120C4454F
:1011500009D1594517D0002C05D130002843431E32
:10116000984100E00120F0BCBB46B246A946A0462B
:10117000F0BD330001202B43F5D1A242F3D14B4601
:101180003B43F0D1E2E70020EDE7C046FF07000057
:10119000F0B54746CE460400180016001B031B0B93
:1011A0002D4D4A00994680B543000F03A446B04632
:1011B0003F0B520DC90F5B0DC00FAA4221D0AB42AD
:1011C00013D0002A22D13C43002B02D14D462E439E
:1011D00022D0002C10D0814222D0022001390840B8
:1011E0000138C0BCB946B046F0BD4D462E4329D1AA
:1011F000002AF0D13C43EED10028F2D10120404238
:10120000EFE73D0025431DD19342EED0002BE2D104
:101210004C462643DFD1E0E70020002CE1D0DCE79C
:101220009A420ADCE8DB4F45D7D80ED000204F4564
:10123000D7D20029E2D00800D3E74342584140000A
:101240000138CEE702204042CBE7C445C5D8002094
:10125000C445C6D2EDE7C046FF070000F0B54746DB
:10126000CE460400180016001B031B0B2C4D4A0031
:10127000994680B543000F03A446B0463F0B520D7C
:10128000C90F5B0DC00FAA420DD0AB4210D0002A8F
:1012900027D13C43002B11D14D462E430ED10020C7
:1012A000002C15D00EE03D00254310D1934218D1FB
:1012B0004D462E430BD1002A02D13C43002C0BD0CB
:1012C000814214D0022001390840013800E0022098
:1012D000C0BCB946B046F0BD0028F9D1012040425B
:1012E000F6E7002BECD14C462643E9D1EAE79A42D7
:1012F00004DD4342584140000138E9E79A42EBDB04
:101300004F45DFD806D000204F45E1D20029E5D077
:101310000800DDE7C445D5D80020C445D8D2F5E79C
:10132000FF070000F0B557464E464546DE46E0B59D
:1013300098460C034B000600924687B0240B5B0DC9
:10134000CF0F002B00D15EE1DA4A934200D177E162
:10135000420FE4001443802212041443D64AC5000D
:10136000944663440093002399469B464346424675
:101370001E03D20F5B0050469046360B5B0D00D12A
:1013800022E1CC4A934200D164E1CB49420F8C4622
:1013900000996344F6008C46164380229C44120454
:1013A00063461643C2000020009300994346013172
:1013B0008C4649467B4001930F2926D8BF4B8900B4
:1013C00059588F46434601933400150083465B46C7
:1013D000022B16D0032B00D105E2012B00D0CFE069
:1013E000002200240025019B12052243DB071A433B
:1013F0002800110007B0F0BCBB46B246A946A04683
:10140000F0BD00240025AB4AEDE7280C2D042D0C7F
:101410002B00110C1204120C5343984613002F009A
:10142000434399464F434F44BB4647460B003F0C4E
:10143000BA465F46434357440293B94506D99A4694
:1014400080235B029946CA44534602933B0C9B4659
:1014500043461B043F041B0C98463B004344049343
:10146000330C3604360C98463300434399464346C2
:1014700043432F009A46434677435D43380C4D441F
:101480004519A94503D980235B029946CA443F0404
:10149000280C3F0C2D04ED19270C2404240C030008
:1014A000200050437A4391463A0053440593030C7D
:1014B0009A464A43614349445144AB44894503D960
:1014C00080235B0299464A4400040B0C000C09047B
:1014D000091820009946434670435C437E435F43AE
:1014E000030C9846A41944444A440397A64204D9DD
:1014F00080235B02984647440397029B00045B44A9
:101500001E00AB42AD4123049A46059B76189846CF
:101510008E428941000C504440446D424719B84600
:10152000934649428946C344D94498428041A845DC
:10153000AD4193459241894589416D4240422843DE
:10154000240C524249420A43039B00198018C718D1
:101550004B46DC0D049B75021D436A1E95414B46AC
:10156000F60D7F0235435A023C431543FB0100D47C
:101570001CE101216A080D401543E2071543640888
:101580004F496144002900DCB0E06B0709D00F220D
:101590002A40042A05D02A1DAA42AD416D42641991
:1015A0001500E30104D58021464AC9001440614476
:1015B000454A914200DD24E76207ED0864024905CF
:1015C0001543240B4A0D0EE75246324300D17FE00B
:1015D000002E00D1DCE0300000F04EFD02000B3A9E
:1015E0001D2301009B1A52460839DA408E401643EB
:1015F00052468A40009B3549181A03008C466344C2
:1016000000200093D1E6250005434AD0002C00D1EC
:10161000B0E0200000F030FD010002000B391D2376
:1016200010005B1A3100350008388440D9408540ED
:101630000C432648831A0093002399469B4695E65F
:101640000500254326D10822009302230024914659
:101650009B468BE65246009B324310D1154900262B
:101660008C4663444946009302231943894602206D
:101670009BE65B460197022B00D0ABE6C1E60D4A24
:101680000320944663444A46009303231A43914639
:1016900052468AE60C2200930323050091469B469E
:1016A00064E60423994600230093013300249B46FB
:1016B0005CE6C046FF07000001FCFFFF487500081C
:1016C000FF030000FFFFFFFEFE0700000DFCFFFF11
:1016D00049460123194389460026012065E6002377
:1016E00080240025434A019324037CE60120401A0C
:1016F000382800DD74E61F285BDD1F2223005242DC
:10170000511ACB401900202803D03B4A6244944030
:1017100025436A1E95412A000A4307210D00002433
:10172000154011425BD00F2100241140042953D0F1
:10173000111D914292415242A4180A0023024BD536
:101740000122002400254EE680231B031C4209D001
:101750001E4207D133431C0343461500240B254A80
:10176000019340E68022120314432403214A240BF0
:10177000019738E600F080FC0100020015312032AC
:101780001C2900DC4BE7340008380025844050E772
:1017900000F072FC03001A00153220301C2A00DC15
:1017A0001EE75646083B00229E4023E7009B9C46CE
:1017B000E6E61249220061442E008D408A40C64070
:1017C000691E8D4132432A43C4405307B6D00F21CE
:1017D00011400429ACD1B1E765076402240BD2089B
:1017E00015430022FFE58022120314432403014A1B
:1017F000240BF8E5FF0700003E0400001E04000073
:10180000F8B557464E464546DE46E0B51E00170081
:101810004A000B03520D5B0A9046420F1A43CD0F4C
:10182000CD4C3103C300944670007A0F490AFF0083
:101830009A46B946400DF60F1143A04200D1B1E0DF
:1018400001225640B346B54200D188E04246121A02
:10185000002A00DCAEE0002800D1C1E0BE4880458F
:1018600000D151E1802000040143382A00DD7BE1F2
:101870001F2A00DDEEE120203E00801A0C00D64039
:10188000D140874062468440521A781E8741944670
:1018900034432743DC1BA3429B4162465B42D31A7D
:1018A00099464B461B0200D418E14B465802430AA6
:1018B00099464B46002B00D137E1484600F0DCFB4F
:1018C000010008392023220048465B1ADA4088408C
:1018D0008C4043461043884500DD36E1C91A4B1C55
:1018E0001F2B00DDEAE020222600D21A01009440DE
:1018F000DE40D84000239140621E944181469846C4
:1019000031430C43630709D00F232340042B05D038
:10191000231DA342A4416442A1441C004B461B0268
:1019200000D4DEE041468C4B0131994200D1E7E022
:101930004B468A48E4080340180049055B0740020B
:1019400023434A0D040B1205ED0722432A431800D6
:101950001100F0BCBB46B246A946A046F8BD4246BF
:10196000121A002A52DD002800D19CE0A04500D1C7
:10197000CAE0802000040143382A00DD49E11F2A23
:1019800000DC97E110000E002038C640202A04D069
:101990004020821A91400F43B9464C46621E944142
:1019A00034433AE10A003A4328D0B346B5422BD03B
:1019B0006B4A4244002A5DD042464446821A002CBB
:1019C00000D0F5E065461D4300D19CE1551E012A7B
:1019D00000D1FBE1604CA24200D1BDE12A00F0E061
:1019E0000800384300D1C3E0501E012A00D1A8E10D
:1019F000594CA24200D187E0020036E7012256404E
:101A0000B346B54200D021E7554A4244002A00D1EE
:101A1000B5E042464446821A002C00D138E14E4ED1
:101A2000B04200D1DEE18026644636043443A44649
:101A3000382A00DD96E11F2A00DD24E22026B41AB0
:101A4000A24664465646B440A1461C004E46D440C9
:101A5000264334005646B3405E1EB3411C436346E2
:101A6000D340C918E419BC42BF417F42B946804601
:101A70008944D8E040463B4C0130204200D0B4E0DD
:101A80004046002800D044E16046184300D190E170
:101A90000800384300D0AAE16146DB0849070B4340
:101AA0006146CC0827E00800384361D0501E012A67
:101AB00000D139E1A24227D002005DE702001F39C0
:101AC000CA401100202B03D04022D31A984004436F
:101AD000631E9C410023994698460C43630700D03F
:101AE00012E74B464A46E4085B072343D4084246C4
:101AF00019498A420ED024035205240B520D22E7C5
:101B00000A00002400231EE7DB0862465207134345
:101B10006246D4081A00224300D1FCE1802212035D
:101B2000144324030C4A240B0DE7200000F0A4FA10
:101B3000010018311F2900DCC4E608388440434600
:101B400020000024884500DCC8E6044A5B1A1040E7
:101B500098468146D6E6C046FF070000FFFF7FFF9C
:101B600001F8FFFFFE0700000F437A1E974191E640
:101B70006146DB0849070B436146CC08B8E740469D
:101B8000D34C0130204200D0A2E04046002800D0D3
:101B900001E16046184300D15EE10800384300D0FF
:101BA0005FE16146DB0849070B436146CC08A2E7C9
:101BB000C84DA84200D1CFE0802564462D042C43B7
:101BC000A446382A56DC1F2A00DDD1E020251E005D
:101BD000AD1A6446AB40AC40D6405D1EAB413443C9
:101BE00023436446D440091B49E06046DC1B461A87
:101BF000A34280414042814630004E46801B8146D0
:101C0000000276D44B46234300D052E60024002540
:101C100071E739430C00621E9441E4189C429B41D9
:101C20005B42634499464B461B0200D456E70123AE
:101C30009C46A84BE044984538D04B46A648012224
:101C400003401800630814401C43C3071C434308A7
:101C5000994657E610000E002038C640202A04D0CE
:101C60004020821A91400F43B9464F467A1E974151
:101C700037430FE662461A4313005A1E9341FC1A7B
:101C8000A742BF417F42CB1B99465D46804608E68E
:101C900066461E4300D1BEE0561E012A00D109E16E
:101CA0008C4CA24200D119E13200C1E64246002428
:101CB000002348E620200C00801A3E008740844024
:101CC000D640781E8741D14034433C438C44A4E73E
:101CD000804A904200D1E9E0DF199F429B41614474
:101CE0005B42C918CC077F084B08994680463C43A5
:101CF000F4E6FC1AA742BF4163467F42C91ACB1BD8
:101D000099465D46D5E5FF084B075D463B43CC0849
:101D1000EEE662461A4300D082E00B003B431BD143
:101D2000802400252403F9E6DC199C429B41614490
:101D300089465B4299444B461B0244D40123984692
:101D4000CCE6DC1B6246A3429B41511A5B42CB1A94
:101D5000994601239846A4E5FF084B075D463B439F
:101D6000CC08D7E662461A431400631E9C4179E60C
:101D700015006446203DEC40A046202A05D04025B1
:101D80006446AA1A944023439A465446631E9C41D3
:101D90004346234373E762461A4323D00A003A437B
:101DA00000D0A0E06246DB08520713436246D40825
:101DB000B0E60B003B4300D128E7FF084B075D4628
:101DC0003B43CC0897E60223984636E7FC1AA74225
:101DD000BF4163467F42C91ACB1B994601235D462A
:101DE00098465EE54B07FF083B43CC0892E6DC1BB8
:101DF0006046A342B641401A7642801B81460002EB
:101E000060D5FC1AA742BF4163467F42C91ACB1B6B
:101E100099465D4676E5FF084B073B43CC0867E6ED
:101E20000A00DB083A4300D16FE6624652071343CB
:101E30006246D40880221203144207D0C808104218
:101E400004D15D460400FB0849070B435A0FDB0031
:101E5000DB08520713435DE64B07FF083B43CC0802
:101E600049E6DC199C429B41614489465B429944A6
:101E70004B461B0200D431E64A46174B1A40012359
:101E8000914698462AE616006446203EF440A04655
:101E9000202A05D040266446B21A944023439A462D
:101EA0005446631E9C4143461C43DBE5020000246C
:101EB000002348E5DC19BC42BF41614489467F42AA
:101EC000B94438E74B46234300D19FE606E6C046B7
:101ED000FE070000FF070000FFFF7FFFFF084B0722
:101EE0003B43CC0816E66246DB08520713436246C2
:101EF000D40880221203144207D0C808104204D12B
:101F00005D460400FB0849070B435A0FDB005207EC
:101F1000DB081343FEE50023014A1C0013E5C0461D
:101F2000FF07000070B505000C481C0316005B009D
:101F30000A034900120B490D240B5B0D814208D0A6
:101F4000064A0020934203D120003043431E9841AB
:101F500070BD01202A43FBD1F2E7C046FF07000015
:101F60000A0030B5134C530009030500090B00208B
:101F70005B0DD20FA34204DD0F48834202DD0F4BFD
:101F8000D01830BD8020400301430D48C01A1F28DF
:101F900008DD0C48C31AD9400B005842002AF0D182
:101FA0001800EEE7084CC540A446634499400B0076
:101FB0002B43F2E7FE0300001D040000FFFFFF7F3C
:101FC0003304000013040000EDFBFFFF70B5002890
:101FD00016D0C317C5185D40C40F280000F04CF898
:101FE000114A121A0A2816DC03002E0015339E40EF
:101FF0000B23181AC54052052D032D0B530D03E07A
:1020000000240023002500261B052B43E40723435F
:102010003000190070BD0B38854052052D03002695
:102020002D0B530DF0E7C0461E04000010B5041E32
:1020300010D000F021F80F4B1B1A0A2811DC0B22DC
:102040002100121AD14015300A035B058440120B9F
:102050005B0D01E0002300221B0513432000190043
:1020600010BD22000B3882405B0512030024120BC6
:102070005B0DF1E71E0400001C2101231B049842A4
:1020800001D3000C10391B0A984201D3000A083909
:102090001B09984201D30009043902A2105C4018C0
:1020A0007047C04604030202010101010000000064
:1020B0000000000080204000704710B5FFF7FAFFD5
:1020C00010BD10207047C37A012018407047836804
:1020D0001B684068834280414042704770B50500EC
:1020E0000C00837B802B0DD00800FFF7F0FF002849
:1020F0000AD02168A2681368581C10606A7BCA5411
:10210000092002E0092000E0082070BDF0B5DE469D
:1021100057464E464546E0B583B08046019192460B
:102120001800264B434499461A00524453465B001C
:10213000434412215B5E22498B4600210F0013E0CD
:10214000013189B2814203D2755C545CA542F7D05B
:102150008F4204D29BB29B4681422BD00F00634634
:102160005C0044441221635E9C4669460424095F76
:10217000591A0DD44946CE18F55DD15D8D4205D072
:1021800063465C0044441221635EEDE70121D9E718
:10219000BC466346012B0FD90C9B62461A805346FE
:1021A0005A46981A80B203B0F0BCBB46B246A94664
:1021B000A046F0BD8C46ECE70148F4E712040000AD
:1021C000FFFF0000F0B5C64600B586B00400FFF77B
:1021D00071FF03902000FFF774FF050080466688BA
:1021E0002000FFF770FF33002788002800D001256A
:1021F0007D1BAB4226DC2000FFF75FFF301882B268
:10220000039BD11A89B2BB1B434501DA9BB29846A6
:102210000E2302A88446634400201880009343469E
:102220002000FFF773FF0E4B984211D0E0800E2381
:1022300002AA944663441B88A380032006B080BC96
:10224000B846F0BD002801D00820F7E70720F5E7E1
:102250006388013363800023A3800320EEE7C04638
:10226000FFFF0000F0B50C00082901D0013C0AE096
:10227000817B8029FAD1186899680B685C1C0C6016
:10228000C254F0BD013C002CFBDB0121A1401142F6
:1022900003D0817B457B29434173817B490881734E
:1022A000F0D1803181731E689D6829684F1C2F60B2
:1022B000457B755400214173E4E710B50B00012103
:1022C000FFF7D0FF10BD70B504000D000800FFF748
:1022D000FEFE002815D0A388002B06D1012229007C
:1022E0002000FFF7EAFF04200CE000222900200074
:1022F000FFF7E3FFE388013B23810823A372052056
:1023000000E0032070BD70B504000B00857A082D35
:102310000DD90289083D2A41D2B2082529002000A2
:10232000FFF7A0FFA37A5B1BA372280070BD027A9F
:10233000002DFAD0F2E770B505000C000800FFF799
:10234000C6FE002801D1052070BD21002800FFF73E
:10235000DAFF002806D1AB88013B2B810423AB7246
:102360000630F1E70520EFE770B505000C00080026
:10237000FFF7ADFE002801D1062070BD2100280026
:10238000FFF7C1FF002807D1AB886A889B186B80D4
:102390000023AB800230F0E70620EEE770B50400C2
:1023A0000E004288013A95B2FFF787FE421992B2B9
:1023B000A218054B9C466244127833000821200085
:1023C000FFF750FF70BDC0461204000070B5050055
:1023D0000C000800FFF77BFE002801D1042070BD2F
:1023E00021002800FFF7DAFF0220F8E7F0B5124CD1
:1023F000A544070080229200FF21684602F096F86B
:102400000E4BFD183C0012343800FFF756FE3E8894
:102410003618B6B2002309E0EA5C52006946505E05
:10242000590060526946535201339BB2B342F3D311
:1024300081239B009D44F0BDFCFDFFFF12040000C2
:1024400070B50400FFF736FE01006588431B9BB2A0
:10245000C21892B208482018C91A8223DB009C4691
:1024600061446118023102F04EF800236380238832
:102470005D1B258070BDC0461204000010B5FFF73B
:10248000DFFF002010BD000010B50400094BC0188C
:1024900080229200002102F049F8002200232280CD
:1024A00023736280E3728021A1736373A28022810F
:1024B000A37210BD12040000F0B5D6464F46464642
:1024C000C0B50400894617009A46002838D0002974
:1024D00039D05346002B39D0FFF7F5FD002838D10D
:1024E000237B002B38D12000FFF7E7FD26888019D9
:1024F00085B22000FFF7DEFD801B83B298461E00E8
:10250000BB4200D93E00B7B28223DB00E818201896
:1025100002303604360C3200494601F0EBFF5346D8
:102520001E602388FB182380B84505D00020E0BC3E
:10253000BA46B146A846F0BD012323730020F6E752
:1025400001204042F3E701204042F0E701204042F1
:10255000EDE702204042EAE702204042E7E70000C0
:10256000F0B585B0040017001E0000284BD00029EC
:102570004CD0002B4DD0002A4ED000233360019167
:10258000029203960AE0002005B0F0BD2000FFF79C
:102590002DFF02232373237BAB422FD0257B092DF4
:1025A0003DD8A9001F4B5B589F462000FFF70AFE4D
:1025B0002073F0E701A92000FFF785FE2073EAE70A
:1025C00001A92000FFF702FF2073E4E701A9200022
:1025D000FFF7B1FE2073DEE701A92000FFF7C4FE7C
:1025E0002073D8E72000FFF749FF2073D3E701A944
:1025F0002000FFF773FD20730020C5E73368BB425E
:10260000CCD10120C0E701204042BDE7012040427B
:10261000BAE701204042B7E702204042B4E7022077
:102620004042B1E78875000800280ED0C37A012225
:102630001343C372037B002B01D101330373007B6F
:102640000938431E984140B2704701204042FBE7E1
:1026500082B00A4B596980208002014359615A694E
:1026600002400092009A5A698021C9020A435A61C5
:102670005B690B400193019B02B070470010024060
:10268000F0B5D6464F464646C0B582B0814688462C
:1026900092462148FFF7F8FE43465E08464404365A
:1026A0000121404601F0CEFE0500002301930024E5
:1026B0000027474521D24346DA1B4B46D91901ABC7
:1026C0001548FFF7F9FE019B9C466744B84510D0BA
:1026D000321B291901AB1048FFF742FF019B9C46B2
:1026E00064440128F4D0B845E3D10B48FFF79CFFC0
:1026F000DFE70948FFF798FFEAE722002900504684
:1027000001F0F8FE280001F0EBFE02B0E0BCBA4692
:10271000B146A846F0BDC0464813002010B50023BE
:1027200003E0C45C0534D45401338B42F9D310BDAB
:1027300072B6FEE710B51248124B0360124B4360AD
:10274000002383600122C260036143618361C3612E
:10275000036200F093FD00280CD10021084800F02E
:1027600097FF002808D10021054800F0BDFF002890
:1027700004D110BDFFF7DCFFFFF7DAFFFFF7D8FF4A
:10278000FC120020005400400E09002010B50B4838
:102790000B4B036096231B02436000238360C360DE
:1027A00003610C2242618361C3610362436201F0F1
:1027B000E9FD002800D110BDFFF7BAFF5C19002029
:1027C0000038014000B597B0302200210AA801F07E
:1027D000ADFE1022002106A801F0A8FE142200215F
:1027E00001A801F0A3FE02230A93013B0D930F33CE
:1027F0000E930AA800F0A2FF002817D10723069322
:102800000023079308930993002106A801F01CFAFE
:1028100000280DD12123019300230393049301A8E1
:1028200001F0C2FA002805D117B000BDFFF780FF04
:10283000FFF77EFFFFF77CFFF0B5DE4657464E46BA
:102840004546E0B5BBB000F071FAFFF7BBFFFFF7FC
:10285000FFFEFFF76FFFFFF799FFE7236B440122AD
:102860001A70FA25AD0002950192009301230532FA
:10287000D021B34800F068FD29ABB24C210045C916
:1028800045C31A000B6813600B7913712F220021C6
:10289000B520684401F04AFE19AA40340BCC0BC2A3
:1028A00023681360237913712F2200217520684457
:1028B00001F03CFE09A9A44B0A0013CB13C213CBB1
:1028C00013C203CB03C22022002111A801F02EFE67
:1028D0009E4B0793002308939D4C9E4A9E492000DF
:1028E00002F06EFB2B00402221009C4801F090FC7E
:1028F00000231F00E0E000F035FA994B984618607D
:102900008F4CFA26B600029601250195954B00934F
:1029100001232D22D021200000F0E6FD0296019532
:10292000914B009301232E22D021200000F0DCFDEA
:10293000029601958D4B009301232F22D021200078
:1029400000F0D2FD02960195894B009301233022BD
:10295000D021200000F0C8FD02960195854B009320
:1029600001233122D021200000F0BEFD0296019506
:10297000814B009301233222D021200000F0B4FDCE
:10298000029601957D4B009301233322D021200034
:1029900000F0AAFD02960195794B009301233422A1
:1029A000D021200000F0A0FD02960195754B9B46BA
:1029B000009301233522D021200000F095FD0296DE
:1029C0000195714B9A46009301233622D0212000B5
:1029D00000F08AFD029601956C4B99460093012305
:1029E0003722D021200000F07FFD02960195684D2E
:1029F000009501233822D021200000F075FD594BAD
:102A00001B781B02584A14781C4324B2614B1C806B
:102A1000564B1B781B02564A16781E4336B25E4B45
:102A20001E80544B1B781B02534A1078184300B287
:102A30005A4B1880514B1A781202514B1B78134392
:102A4000574A13805B461A78120253461B78134389
:102A5000544A13804B461A7812022B781343524A79
:102A6000138043461B689846504DFFF7AFFA00228B
:102A70004F4BFEF757FC049005913000FFF7A6FA84
:102A800000224B4BFEF74EFC029003912000FFF713
:102A90009DFA0022464BFEF745FC0090019142460C
:102AA0004449280002F08CFA2900434802F0A8FAB1
:102AB000642000F05DF90137052F00DC1BE7FA25E3
:102AC000AD00264C2B00402229A9200001F0A0FBDC
:102AD000AF26F600384F2B0032003900200001F0FD
:102AE00097FB2B00402207A9200001F091FB334BFC
:102AF00098461A0031003800FFF710FE2B00320014
:102B00004146200001F084FB2B00402207A9200051
:102B100001F07EFB2A4B98461A0031003800FFF77F
:102B2000AFFD2B00274A4146200001F071FB2B002E
:102B3000402207A9200001F06BFB002001F08CFC73
:102B4000FC12002048740008C87400080D0A0A002E
:102B5000BC120020B0750008D87500085C19002070
:102B6000E0190020FA010020FB010020FE010020F6
:102B7000FF0100200202002003020020B212002008
:102B8000B3120020B6120020B7120020BA120020A3
:102B9000BB120020F8010020FC01002000020020F0
:102BA000B0120020B4120020B8120020040200204D
:102BB0000000103FE075000844020020380D00209E
:102BC000BC0700207C05000082B00A4B99690122F5
:102BD0001143996199690A400092009ADA6980214B
:102BE00049050A43DA61DB690B400193019B02B09E
:102BF0007047C0460010024010B588B0040014228F
:102C0000002103A801F092FC2268124B9A4201D0E5
:102C100008B010BD104C62698021C9020A4362618C
:102C200063690B400193019BC0230393AE3B049364
:102C30000F3B0693023B079303A9084800F0F6F800
:102C4000E269802189030A43E261E3690B40029350
:102C5000029BDDE7005400400010024000040048E1
:102C600010B588B004001422002103A801F05EFC16
:102C70002268134B9A4201D008B010BD114B9969DC
:102C80008020C001014399619A6902400192019A32
:102C90005A69802189020A435A615B690B40029399
:102CA000029BC023DB0003930223049301330693AA
:102CB000023B0793902003A9C00500F0B7F8DBE7BB
:102CC0000038014000100240FEE7FEE77047704701
:102CD00010B500F03BF810BD7047000010B50400BF
:102CE0000F4B1978FA208000FDF72AFA01000D4BEE
:102CF0001868FDF725FA00F07DF800280DD1032CA7
:102D000001D901200AE0013000222100404200F0F8
:102D100041F8054B1C60002000E0012010BDC046BA
:102D200004000020000000200800002010B5064A22
:102D3000136810210B4313600320FFF7CFFFFFF749
:102D400043FF002010BDC04600200240034A116826
:102D5000034B1B785B1813607047C046E4190020D2
:102D600004000020014B18687047C046E419002099
:102D700070B50400FFF7F6FF0500631C02D0044B9A
:102D80001B78E418FFF7EEFF401BA042FAD370BD9A
:102D90000400002070B5002811DB8308134EC033F7
:102DA0009B009D5903242040C000FF221400844052
:102DB000A54389010A4082402A439A5170BD0F23DE
:102DC0000340083B9B0806339B00094A9446634432
:102DD0005C6803221040C000FC3215008540AC4303
:102DE00089010A40824022435A60E7E700E100E09F
:102DF00000ED00E0013880235B0498420FD2094ABD
:102E000050600948036A1B021B0AC02109060B43D4
:102E10000362002393600733136000207047012092
:102E2000FCE7C04610E000E000ED00E0F0B583B044
:102E3000002357E084685F000326BE40B4432600A9
:102E4000CC68BC4034438460446894434A681609A3
:102E5000012232409A402243426053E0DC080834A9
:102E6000A400265805321A4092000F279740BE430F
:102E70000F6997403A003243225057E0032600E0A2
:102E80000026A64034003C4302329200444E945146
:102E9000444A1468EA432600AE434F68FF0301D555
:102EA0002C4326003F4C26606468260016404F687D
:102EB000BF0301D52C4326003A4C6660A468260067
:102EC00016404F68FF0201D52C432600354CA66002
:102ED000E46822404E68B60201D52A002243314CF4
:102EE000E26001330C682200DA4057D001229A4098
:102EF000250015401442F4D003244E683440013CB0
:102F0000012C97D903224C682240032A09D0C268B9
:102F10005E000324B440A24314008A68B2402243F6
:102F2000C26003224C682240022A97D004685E00E7
:102F300003221700B740BC434F683A40B2402243D7
:102F40000260C02292024C681442CAD0164CA66994
:102F500001221643A661A46922400192019A9A08AF
:102F6000941CA4000E4EA75903241C40A4000F2655
:102F7000A640B7439026F605B04281D00B4EB04232
:102F800008D00B4EB04207D00A4EB04200D175E7D0
:102F9000052676E7012674E7022672E703B0F0BD46
:102FA00000000140000401400010024000040048FD
:102FB00000080048000C004803689A69920701D590
:102FC00000229A6203689A69D20703D49A690121A0
:102FD0000A439A617047000070B504686068049DF8
:102FE0006D0D8026F6002E40064D3543A843890519
:102FF000890D120411431943049B19430143616075
:1030000070BDC046FF63FF03F8B505000F00160052
:1030100003689A69D2063BD55A68920104D459686C
:103020008022D2010A435A602B689C69A20615D4FB
:103030007B1CF9D0FFF796FE801BB84201D8002F09
:10304000F2D16B6C202213436B644123EA540023BA
:103050002232AB54023AAB5401201AE01022DA615A
:103060002B682024DC612800FFF7A6FF2A6853683C
:1030700008490B4053606B6C042213436B6441237B
:10308000EC5400233E32AB54023AAB54012000E032
:103090000020F8BD00E800FE70B504000D00160029
:1030A00023689B699B071CD4320029002000FFF78E
:1030B000ABFF002817D16B1CF2D0FFF753FE801B2B
:1030C000A84201D8002DEBD1636C20221343636426
:1030D0004123E25400232232A354023AA354012094
:1030E00000E0002070BD0120FCE7F0B5C64600B549
:1030F00007000D0090461E003B689C692C40641B35
:1031000063425C41444516D1731CF5D0FFF72AFE9B
:10311000069BC01AB04201D8002EEDD17B6C202254
:1031200013437B644123FA5400232232BB54023AF6
:10313000BB54012000E0002080BCB846F0BD000078
:1031400070B582B0040015001E008023F2B2194849
:1031500000905B042000FFF73FFF079A06992000CC
:10316000FFF79AFF00281ED1012E0ED12368EDB281
:103170009D62079B0093069B002280212000FFF7A1
:10318000B4FF002813D102B070BD23682A0A9A62E6
:10319000079A06992000FFF77FFF002805D12368D2
:1031A000EDB29D62E5E70120EDE70120EBE70120AC
:1031B000E9E7C0460020008070B582B00400150029
:1031C0001E00DAB2184B00930023FFF705FF079AA1
:1031D00006992000FFF760FF00281ED1012E0ED1B6
:1031E0002368EDB29D62079B0093069B002240215D
:1031F0002000FFF77AFF002813D102B070BD2368CA
:103200002A0A9A62079A06992000FFF745FF0028CC
:1032100005D12368EDB29D62E5E70120EDE70120CD
:10322000EBE70120E9E7C0460020008070B505000B
:103230000C0016002B689B699B061AD432002100F3
:103240002800FFF7E1FE002815D1FFF78BFD801B5A
:10325000A04201D8002CEDD16B6C202213436B648B
:103260004123EA5400232232AB54023AAB540120EA
:1032700070BD0020FCE70120FAE7000010B5041E35
:1032800059D04123C35C002B43D041232422E25474
:103290002268136801218B4313602268274B616801
:1032A0000B4013612268936825490B409360E368E3
:1032B000012B34D0226884231B02A1680B43936046
:1032C000E368022B32D0226851681E4B0B435360D7
:1032D0002268D3681A490B40D3602369626913439B
:1032E000A269120221681343CB602268E369216A54
:1032F0000B4313602268136801210B431360002302
:10330000636441221F31A15423630132A35400207E
:1033100010BD40330022C254FFF76EFCB5E72268AF
:1033200080231B02A1680B439360C9E723688022B6
:1033300012015A60C7E70120EAE7C046FFFFFFF02D
:10334000FF7FFFFF00800002F0B587B0040003910B
:10335000049205930CAB20CB1F884123C35C202B28
:1033600000D0B3E0002D18D0002F16D04023C35C4E
:10337000012B00D1ADE040230122C254FFF7F2FC43
:103380000600802100901923012209022000FFF786
:10339000ACFE002806D0012099E080239B006364E6
:1033A000012094E041232122E25401331F32E254F0
:1033B0000023636465626785636301960E9B0093D7
:1033C000059B049A03992000FFF7BAFE00280FD14D
:1033D000638D9BB2FF2B10D9FF2323857F3B0022F7
:1033E00000925B04FF3203992000FFF7F5FD21E016
:1033F00040230022E254012069E0628D92B22285CE
:103400008023D2B2002100919B0403992000FFF792
:10341000E3FD0FE0628D92B222858023D2B20021BB
:1034200000919B0403992000FFF7D6FD638D9BB2AA
:10343000002B34D032000E992000FFF72DFE00281B
:1034400049D12368626A12789A62636A01336362BF
:10345000638D013B9BB26385238D013B9BB223852A
:10346000628D92B2002AE1D0002BDFD100960E9B34
:10347000002280212000FFF738FE00282DD1638D27
:103480009BB2FF2BC6D9FF2323857F3B00220092EE
:103490005B04FF3203992000FFF79EFDC6E7320070
:1034A0000E992000FFF7C2FE002818D123682022C1
:1034B000DA6121684B680B4D2B404B604123E2548D
:1034C00000232232A354023AA35400E0022007B0A2
:1034D000F0BD0220FBE70120F9E70120F7E701201A
:1034E000F5E7C04600E800FEF0B587B004000391A0
:1034F000049205930CAB20CB1F884123C35C202B87
:1035000000D0B5E0002D18D0002F16D04023C35CAA
:10351000012B00D1AFE040230122C254FFF722FC6F
:103520000600802100901923012209022000FFF7E4
:10353000DCFD002806D001209BE080239B00636413
:10354000012096E041232222E25401331E32E2544C
:103550000023636465626785636301960E9B009335
:10356000059B049A03992000FFF726FE00280FD13F
:10357000638D9BB2FF2B10D9FF2323857F3B424AEB
:1035800000925B04FF2203992000FFF725FD21E054
:1035900040230022E25401206BE0628D92B222852A
:1035A0008023D2B2384900919B0403992000FFF791
:1035B00013FD0FE0628D92B222858023D2B20021EA
:1035C00000919B0403992000FFF706FD638D9BB2D9
:1035D000002B36D000960E9B002204212000FFF71E
:1035E00084FD002849D123685B6A626A1370636AAC
:1035F00001336362238D013B9BB22385628D013AC7
:1036000092B26285628D92B2002ADFD0002BDDD1AA
:1036100000960E9B002280212000FFF766FD002807
:103620002DD1638D9BB2FF2BC4D9FF2323857F3B14
:10363000002200925B04FF3203992000FFF7CCFCCC
:10364000C4E732000E992000FFF7F0FD002818D1E2
:1036500023682022DA6121684B680C4D2B404B60B7
:103660004123E25400232232A354023AA35400E03F
:10367000022007B0F0BD0220FBE70120F9E701209E
:10368000F7E70120F5E7C0460024008000E800FECF
:10369000F0B54123C35C202B20D12033C35C012B28
:1036A0001ED040240122025541252423435506689B
:1036B000336893433360066833680A4F3B40336096
:1036C000066833681943316001680B6813430B6067
:1036D00020234355002303550020F0BD0220FCE7C2
:1036E0000220FAE7FFEFFFFFF0B54123C35C202B78
:1036F0001ED12033C35C012B1CD040240122025573
:103700004125242343550668336893433360066894
:103710003368094F3B4009021943316001680B6867
:1037200013430B6020234355002303550020F0BDB5
:103730000220FCE70220FAE7FFF0FFFF70B582B03D
:10374000041E00D12EE20368DB0726D5AE4B5A6873
:103750000C231340042B18D0AB4B5A680C23134096
:10376000082B0ED06368012B3CD0002B51D1A64B07
:103770001A68A6490A401A601A68A5490A401A60E0
:1037800036E0A14B5B68DB03ECD59F4B1B689B03CA
:1037900003D56368002B00D107E223689B0772D52D
:1037A000994B5B680C221A425DD0974B5A680C23E8
:1037B0001340082B53D0E368002B00D185E0924AD8
:1037C000136801210B431360FFF7CCFA05008E4B01
:1037D0001B689B0770D4FFF7C5FA401B0228F6D977
:1037E0000320E0E1884A116880235B020B431360E9
:1037F0006368002B25D0FFF7B5FA0500824B1B68E4
:103800009B03CAD4FFF7AEFA401B6428F6D9032005
:10381000C9E1052B09D07C4B1A687C490A401A6023
:103820001A687B490A401A60E2E7774B19688022E0
:10383000D2020A431A601968802252020A431A60AF
:10384000D6E7FFF78FFA05006F4B1B689B03A4D5E3
:10385000FFF788FA401B6428F6D90320A3E16A4BDE
:103860005B68DB03A7D4684B1B689B0703D5E36841
:10387000012B00D09BE164490B68F8229343226935
:10388000D20013430B6023681B0744D5E369002B68
:103890002ED05D4A536A01210B435362FFF762FA4F
:1038A0000500594B5B6A9B0735D4FFF75BFA401B59
:1038B0000228F6D9032076E153490B68F822934396
:1038C0002269D20013430B60DDE74F4A13680121E0
:1038D0008B431360FFF746FA05004B4B1B689B07B1
:1038E000D1D5FFF73FFA401B0228F6D903205AE151
:1038F000454A536A01218B435362FFF733FA0500AF
:10390000414B5B6A9B0706D5FFF72CFA401B022848
:10391000F6D9032047E123685B0700D480E03A4BE7
:10392000DB69DB001DD4384AD169802040050143A2
:10393000D161D36903400193019B0125354B1B687D
:10394000DB0510D5A368012B21D0002B36D12E4BDF
:103950001A6A01218A431A621A6A03318A431A6277
:103960001AE00025EAE72B4A116880235B000B432D
:103970001360FFF7F7F90600264B1B68DB05E1D45F
:10398000FFF7F0F9801B6428F6D903200BE11E4AEB
:10399000136A01210B431362A368002B24D0FFF7A5
:1039A000E1F90600184B1B6A9B0737D4FFF7DAF9D9
:1039B000801B194B9842F5D90320F4E0052B09D060
:1039C000114B1A6A01218A431A621A6A03318A4327
:1039D0001A62E1E70C4B1A6A04210A431A621A6A56
:1039E00003390A431A62D7E7FFF7BCF90600064B12
:1039F0001B6A9B0712D5FFF7B5F9801B064B98424F
:103A0000F5D90320CFE0C04600100240FFFFFEFFC3
:103A1000FFFFFBFF0070004088130000012D33D032
:103A20002368DB0610D56369012B33D0053351D1F0
:103A3000654A536B04218B435363536BF4318B43BF
:103A4000A169C9000B435363236A002B00D1B0E086
:103A50005D4A51680C220A40082A00D18AE0022BF4
:103A60004FD0594A136859490B401360FFF77AF950
:103A70000400554B1B689B017AD5FFF773F9001BB7
:103A80000228F6D903208EE04F4AD36950490B40F3
:103A9000D361C5E74C4B5A6B04210A435A635A6BF6
:103AA00003390A435A63FFF75DF90500464B5B6B28
:103AB0009B0706D4FFF756F9401B0228F6D90320CE
:103AC00071E041494B6BF8229343A269D200134342
:103AD0004B63B9E73C4B5A6B04210A435A635A6B58
:103AE00003398A435A63FFF73DF90500364B5B6B98
:103AF0009B07A9D5FFF736F9401B0228F6D903200A
:103B000051E0314A136831490B401360FFF72AF93D
:103B100005002D4B1B689B0106D5FFF723F9401BC1
:103B20000228F6D903203EE0274BDA6A0F218A43A8
:103B3000E16A0A43DA625A6826490A40A16A606A61
:103B400001430A435A601968802252040A431A60EA
:103B5000FFF708F904001C4B1B689B0106D4FFF714
:103B600001F9001B0228F6D903201CE000201AE00E
:103B7000002018E0012B1ED0134B5A68D96A80230D
:103B80005B021340606A834217D10F230B40E16A46
:103B90008B4214D1F0239B031A40A36A9A4210D19E
:103BA000002000E0012002B070BD0120FBE70120F1
:103BB000F9E70020F7E70120F5E70120F3E701200E
:103BC000F1E70120EFE7C04600100240FFFFFFFED3
:103BD000FFFFFFEFFFFFC2FF10B588B004AA164B2E
:103BE00013CB13C21B6813606A46144B13CB13C26A
:103BF0001B681360124B5A680C231340082B02D029
:103C0000104808B010BD910C0733194004A8445C5B
:103C10000B49C96A0B406946C95CD30304D50948FE
:103C2000FCF78EFA6043ECE763011B1B9801C01A96
:103C3000C00000190002E4E71076000824760008AE
:103C40000010024000127A0070B504000D00002838
:103C500000D17EE0434B1A68012313408B420AD205
:103C600040490B68012293432B430B600B681A40B9
:103C7000AA4200D06FE023689A070ED55B0705D5EE
:103C8000394A5168E023DB000B435360364A5368DE
:103C9000F0218B43A1680B4353602368DB072DD5CC
:103CA0006368012B1ED0022B22D02F4A1268920784
:103CB00053D52D494A680320824313434B60FFF7D5
:103CC00051F80600284B5B680C221A4063689B0081
:103CD0009A4213D0FFF746F8801B244B9842F1D943
:103CE000032035E0204A12689203E2D401202FE03D
:103CF0001D4A12689201DCD4012029E0194B1A6890
:103D000001231340AB4209D916490B6801229343A2
:103D10002B430B600B681A40AA4220D123685B0733
:103D200006D5114A536812490B40E1680B435360B2
:103D3000FFF752FF0C4B5A6812090F2313400D4A2C
:103D4000D35CD8400C4B18600320FEF7C7FF00205F
:103D500070BD0120FCE70120FAE70120F8E701200F
:103D6000F6E7C04600200240001002408813000021
:103D7000FFF8FFFFF875000800000020014B1868ED
:103D80007047C0460000002010B5FFF7F7FF044B56
:103D90005A68120A07231340024AD35CD84010BD68
:103DA000001002400876000870B582B00400036875
:103DB000DB0337D5424BDB69DB0053D4404AD16982
:103DC000802040050143D161D36903400193019BE9
:103DD00001253C4B1B68DB0546D5394B1A6AC023CD
:103DE0009B00110019401A4213D0626813408B42A5
:103DF0000FD0334B186A344A02401E6A80214902B0
:103E000031431962196A314E314019621A62C3078F
:103E10003ED42B4A136A2C490B4061680B43136252
:103E2000012D44D02368DB0706D5254A136B0321F7
:103E30008B43A1680B43136323689B0606D5204A76
:103E4000136B10218B43E1680B43136323685B05FD
:103E500032D51B4A136B40218B4321690B431363FB
:103E600000202AE00025B4E7164A116880235B0091
:103E70000B431360FEF776FF0600124B1B68DB0551
:103E8000ABD4FEF76FFF801B6428F6D9032014E043
:103E9000FEF768FF06000A4B1B6A9B07B9D4FEF7C2
:103EA00061FF801B0A4B9842F5D9032005E0D369D6
:103EB00008490B40D361B5E7002002B070BDC04691
:103EC0000010024000700040FFFCFFFFFFFFFEFFFC
:103ED00088130000FFFFFFEF10B50400836802693C
:103EE000134342691343C269134301680A68514886
:103EF000024013430B60226853684F490B40E1684E
:103F00000B435360226AA3691A4321688B684B48AC
:103F1000034013438B602368494A934223D0494AA4
:103F2000934231D01023E06980221202904235D0B2
:103F3000042B00D176E064D8002B00D16BE0022B7B
:103F40005DD1414863685B0818186168FCF7F8F8B0
:103F50000004000C0200103A3C4B9A4267D82368D8
:103F6000D860002053E03A4B1A6B03231340022B16
:103F70000CD005D8002B0BD0012B0BD10333D2E78B
:103F8000032B09D1013BCEE70023CCE70823CAE786
:103F90000023C8E71023C6E71023C4E7042B2BD067
:103FA00020D8002B22D0022B1AD12748400063686A
:103FB0005B08C0186168FCF7C3F883B20004000C0A
:103FC00001001039214A91422FD80F2293431A0041
:103FD00040080723184010432368D860002016E0EB
:103FE000012014E0082BE1D0012010E0FFF7CCFE07
:103FF0000028DBD100200AE0FFF7EEFDF8E7012002
:1040000005E0082B02D1802000029BE7012000235D
:104010006366A36610BDFFF7B7FE002800D091E7E6
:104020000020F4E7FFF7D8FDF7E70120EFE70120D4
:10403000EDE7C046F369FFFFFFCFFFFFFFF4FFFF8F
:10404000003801400044004000127A00EFFF0000F9
:1040500000100240436ADB0706D5026853682C490A
:104060000B40816A0B435360436A9B0706D5026885
:10407000536828490B40C16A0B435360436A5B078E
:1040800006D50268536824490B40016B0B4353600B
:10409000436A1B0706D50268536820490B40416BF1
:1040A0000B435360436ADB0606D5026893681C49DC
:1040B0000B40816B0B439360436A9B0606D50268F5
:1040C000936818490B40C16B0B439360436A5B06CE
:1040D0000BD50268536814490B40016C0B435360C5
:1040E00080235B03026C9A420AD0436A1B0606D502
:1040F000026853680D490B40816C0B435360704755
:10410000026853680A490B40416C0B435360ECE76B
:10411000FFFFFDFFFFFFFEFFFFFFFBFFFF7FFFFF36
:10412000FFEFFFFFFFDFFFFFFFFFEFFFFFFFF7FFE7
:10413000FFFF9FFFF8B5CE46474680B506000D004D
:1041400017009946089B98463368DC692C40641B2D
:1041500063425C41BC4253D143460133F4D0FEF785
:1041600001FE4B46C01A40452CD84346002B29D0AF
:1041700033681A685207E7D5DA691205E4D5802258
:1041800012011A62EFF31080012282F31088316865
:104190000B681E4C23400B6080F31088EFF31080F7
:1041A00082F3108831688B6893438B6080F31088AA
:1041B0002023B367F3677F32B35054330022F254A5
:1041C00003201EE0EFF31080012282F31088316893
:1041D0000B680E4C23400B6080F31088EFF31080C7
:1041E00082F3108831688B6893438B6080F310886A
:1041F0002023B367F36754330022F254032000E016
:104200000020C0BCB946B046F8BDC0465FFEFFFF07
:10421000F0B5C64600B582B004000D0090461E0001
:10422000836F202B66D1002969D0002A69D08023B2
:104230005B0182689A421ED07423E35C012B62D03A
:1042400074230122E2540C330022E2505F3BA36747
:10425000FEF788FD070050234246E2520233E25245
:1042600080235B01A2689A420CD0002398467423F5
:104270000022E2541DE00369002BDDD1CB07DBD522
:10428000012038E02369002B02D000239846EEE796
:10429000A8460025EBE743461B88DB05DB0D2268BB
:1042A000138502239C46E0445223E25A013A92B21B
:1042B000E2525223E35A9BB2002B0FD000963B00F0
:1042C000002280212000FFF735FF00281DD1002D9E
:1042D000E1D02B78226813850135E5E700963B0095
:1042E000002240212000FFF725FF00280FD12023C6
:1042F000A36700E0022002B080BCB846F0BD0120F8
:10430000F9E70120F7E70220F5E70320F3E70320B0
:10431000F1E7000030B583B0040080230022C250D2
:10432000FEF720FD05002268126813070DD42368EC
:104330001B685B0716D42023A367E367002323666B
:104340007422A354002003B030BD80210C4B009395
:104350000300002289032000FFF7ECFE0028E6D0CE
:104360000320F0E78021064B00932B000022C903B5
:104370002000FFF7DFFE0028DDD00320E3E7C04682
:10438000FFFFFF0110B5041E2ED0836F002B21D03C
:104390002423A3672268136801218B431360200044
:1043A000FFF79AFD012814D0636A002B18D1226808
:1043B00053680E490B405360226893682A218B434F
:1043C00093602268136829390B4313602000FFF7BC
:1043D000A1FF10BD74330022C254FEF741FCD7E7A1
:1043E0002000FFF737FEE2E70120F2E7FFB7FFFF0B
:1043F0000D4885460D480E490E4A002302E0D45868
:10440000C4500433C4188C42F9D30B4A0B4C00231C
:1044100001E013600432A242FBD3FEF75DFC00F022
:1044200031F8FEF709FAFEE7002000200000002026
:10443000DC010020147A0008DC010020FC190020B7
:10444000FEE7000010B5034B0A000100186800F0F9
:1044500075F810BD0C000020084B10B50400002BAF
:1044600002D0002100E000BF054B1868836A002BD2
:1044700000D09847200002F0D9FFC046000000009D
:104480003876000870B500260C4D0D4C641BA41046
:10449000A64209D1002602F0CBFF0A4D0A4C641B4C
:1044A000A410A64205D170BDB300EB589847013661
:1044B000EEE7B300EB5898470136F2E70C7A0008B4
:1044C0000C7A00080C7A0008107A000810B5034B2B
:1044D0000100186800F08AF810BDC0460C000020EA
:1044E00010B5034B0100186800F036F810BDC04647
:1044F0000C000020002310B59A4200D110BDCC5C06
:10450000C4540133F8E710B5884202D98B18984299
:1045100003D3002307E08B5C8354013AFBD210BD28
:10452000CC5CC45401339A42FAD1F8E703008218F4
:10453000934200D1704719700133F9E74A4370B5CF
:104540001100150000F052F8041E03D02A000021CB
:10455000FFF7ECFF200070BD70B50500002910D0FA
:104560000C1F2368002B00DAE418280001F00AFC75
:104570001D4A1368002B05D163601460280001F008
:1045800009FC70BDA34208D9216860188342F3D1A9
:1045900018685B6841182160EEE71A005B68002B21
:1045A00001D0A342F9D911685018A0420BD120685C
:1045B0000918501811608342E0D118685B684118EF
:1045C00011605360DAE7A04202D90C232B60D5E7D3
:1045D00021686018834203D118685B684118216024
:1045E00063605460CAE7C046E8190020F8B50323A9
:1045F000CD1C9D43083506000C2D1FD20C25A94269
:104600001ED8300001F0BEFB25490A681400002CBA
:104610001AD1244F3B68002B04D12100300000F058
:10462000BDFC38602900300000F0B8FC431C2BD1E1
:104630000C233000336001F0ADFB03E0002DDEDA27
:104640000C2333600020F8BD23685B1B19D40B2BAF
:1046500003D92360E418256003E06368A2420ED109
:104660000B60300001F096FB200007220B30231D69
:104670009043C21A9842E6D01B1AA350E3E7536056
:10468000EFE722006468C2E70323C41C9C43A042F6
:10469000E1D0211A300000F081FC431CDBD1C7E7D8
:1046A000E8190020EC190020F0B51E0000231400CA
:1046B0008BB09E4204DA8021090673181E002D2358
:1046C000129A149F1370202303229F43462F07D072
:1046D0003B00453B59424B411099013ACB1810938E
:1046E00009AB049308AB0393139B00920293109BB6
:1046F00022000193330000F01BFD0500472F02D17B
:10470000119BDB0728D5109BEB180793462F14D17C
:104710002B78302B0CD10022002320003100FBF736
:1047200095FE002804D10123109A9B1A139A136056
:10473000139B079A1B68D3180793002200232000BD
:104740003100FBF783FE002801D0079B099330223C
:10475000099B07998B4206D32800099B159A5B1B7E
:1047600013600BB0F0BD591C09911A70F0E7F0B559
:10477000831C87B0039305000C002B2302700029D3
:1047800001DA4C4202336B70092C31DD0A2704AB8D
:10479000DE1D200039000196FBF742FE013E30315C
:1047A0002000317039000294FBF754FD029B040095
:1047B000632BEEDC019B30349A1E130003991470B6
:1047C00004A8073098420ED804AB073300209A4261
:1047D00004D804AB0930C018019BC01A039B1818F9
:1047E000401B07B0F0BD1878013308700131E7E7CE
:1047F0003023E418AB70281DEC70F1E7F0B595B0EC
:104800000C0008921A9D0993070001F0ABFA0368A7
:1048100018000B93FBF778FC00231293237E0722EA
:104820001E0023680D900C930C992B68C90547D581
:104830009B1893431A0008322A601A685B68A264C6
:10484000E3640122A36CE56C0A936B005B080E9392
:104850000A98A84B0E995242FDF764FB002831D10B
:104860000122A44B0A980E995242FBF7FFFD002843
:1048700028D10022002329000A98FBF7EDFD00282B
:1048800003D023002D2243331A709B4D472E00D9AD
:104890009A4D03230C9A236101339A43002322602B
:1048A0000A93099B210000933800089B13AA00F08B
:1048B000F3F9431C00D09EE00120404215B0F0BD4A
:1048C0000733B6E70A9A2B0010002900FDF72AFBF0
:1048D00000280AD0002D03DA23002D2243331A705A
:1048E000874D472ED5D9874DD3E720223100636805
:1048F00091430E915A1C47D10733636080230C9A71
:10490000DB0013430022069212AA059211AA039219
:10491000232208A92360019363685218029200932E
:1049200038002B000A9A0496FFF7BEFE0E9B050086
:104930001199472B08D1CB1C02DB6368994246DDF5
:104940003300023BDBB21E00652E24D8200032006B
:10495000013950301191FFF70AFF129A0A9013188B
:104960002361012A02DC2268D20701D501332361C9
:10497000232308AA9B181B78002B00D191E7230062
:104980002D2243331A708CE70E9A472AB6D1002B9A
:10499000B4D10133B1E7662E1BD1636800290DDD68
:1049A0002161002B02D12268D20702D501335918A8
:1049B0002161119BA36500230A93D9E7002B03D142
:1049C00001222168114200D09A1C2261F1E767237D
:1049D0001E00119B129A934206DB22682361D207C4
:1049E000E7D501332361E4E70121002B01DC4918FD
:1049F000C91A5218E9E72268530508D423692A0026
:104A000038000899099DA847431C29D154E7652E11
:104A100000D8ECE0A06CE16C00220023FBF716FD4F
:104A2000002834D001233800374A0899099DA84747
:104A3000431C00D140E7119B129A934202DB23688A
:104A4000DB070DD5099D38000D9B0B9A0899A847E7
:104A50000025431C00D12FE7129B013BAB420ADC2F
:104A600023689B0700D514E1139BE068984200DBA4
:104A700024E7180022E72200012338000899099E44
:104A80001A32B047431C00D116E70135E4E7119B09
:104A9000002B3BDC012338001B4A0899099EB047D4
:104AA000431C00D108E7119B129A134302D12368DB
:104AB000DB07D5D50D9B38000B9A0899099EB047A6
:104AC000431C00D1F8E600230A93119B0A9A5B422B
:104AD000934201DC129B92E72200012338000899DF
:104AE000099E1A32B047431C00D1E5E60A9B013308
:104AF000EAE7C046FFFFEF7F3C76000840760008FB
:104B000044760008487600084C760008129AA36D97
:104B10000A929A4200DD0A930A9B002B3DDC002397
:104B20000E930A9BDB43DB170F93A36D0F9A0C9335
:104B30000A9B13400C9AD31A0E9A934236DC119BAF
:104B4000129A934240DB2368DB073DD4129A0C9BF8
:104B50001199D31A521A0A929A4200DD0A930A9BBB
:104B6000002B3ADC0A9B0025DB43DB170B93119AE1
:104B7000129B0B999B1A0A9A0A409B1AAB4200DCC3
:104B80006EE72200012338000899099E1A32B047C7
:104B9000431C00D190E60135E9E70A9B2A00380062
:104BA0000899099EB047431CB9D185E6220001232C
:104BB00038000899099E1A32B047431C00D17BE6A1
:104BC0000E9B01330E93B0E70D9B38000B9A0899AA
:104BD000099EB047431CB9D16EE60C9B3800EA1819
:104BE00008990A9B099DA847431CBBD164E6129B08
:104BF000012B02DC01231A4238D001232A0038009D
:104C00000899099EB047431C00D155E60D9B38001A
:104C10000B9A0899099EB047431C00D14CE6A06C42
:104C2000E16C00220023FBF711FC00281CD1129B31
:104C30006A1C013B38000899099DA847431C0FD105
:104C40003AE62200012338000899099E1A32B0473B
:104C5000431C00D130E60135129B013BAB42F0DC36
:104C600022000A9B5032CBE60025F5E72A00E1E757
:104C70002200012338000899099E1932B047431CCD
:104C800000D119E60135E368139A9B1AAB42EFDCB9
:104C9000EAE60025F7E7C046F7B5150001938A68F4
:104CA0000B690C000090934200DA130022002B6085
:104CB00043321278002A01D001332B6023689B060F
:104CC00002D52B6802332B602268062317001F4091
:104CD0001A4227D0230043331B785A1E934122687F
:104CE000920630D4220001990098089E4332B047C2
:104CF000431C25D0062320682A68E168002503406C
:104D0000042B03D18D1AEB43DB171D40A3682269E6
:104D1000934201DD9B1AED180027BD4220D10020EF
:104D200010E00137E3682A689B1ABB42D2DD2200FB
:104D3000012301990098089E1932B047431CF0D115
:104D400001204042FEBD3020E118433108702100AF
:104D50005A1C45310978A218433202331170C1E759
:104D60002200012301990098089E1A32B047431C83
:104D7000E6D00137D1E70000F0B58BB006920A000B
:104D800043320793059004920A7E0C00109B782A08
:104D900007D8622A09D8002A00D1C1E0582A00D1D8
:104DA0008CE026004236327022E01000633815286D
:104DB000F7D8FBF7BBF916001F00F6FFF6FFF6FF6A
:104DC000F6FF1F00F6FFF6FFF6FFF6FFA80036001D
:104DD0009A00F6FFF6FFB900F6FF3600F6FFF6FF81
:104DE0009E0026001A684236111D19601368337040
:104DF0000123A7E0086819680A1D05060BD50D6890
:104E00001A60002D03DA2D23049A6D421370614B52
:104E10000A2703931BE00D681A604106F1D52DB2F5
:104E2000EFE70D681968081D18602E0601D50D689A
:104E300003E06D06FBD50D68ADB2564B0827039312
:104E40006F2A00D002372300002243331A706368B0
:104E5000A360002B03DB0422216891432160002D15
:104E600002D1049E002B0CD0049E28003900FBF7D1
:104E7000EDF9039B013E5B5C33702B0005009F4204
:104E8000F3D9082F09D12368DB0706D563682269A7
:104E9000934202DC3023013E3370049B9B1B236151
:104EA000079B210000930598069B09AAFFF7F4FED3
:104EB000431C4CD1012040420BB0F0BD45310A707B
:104EC000344A03921A68216820CA1A60080616D567
:104ED000CB0702D52023194321601027002DB2D122
:104EE000202322689A432260ADE7202209680A4302
:104EF00022602200782145321170274AE1E74806F6
:104F0000E6D5ADB2E4E71A680D68101D496918606E
:104F100013682E0601D5196002E06D06FBD51980D5
:104F20000023049E2361BBE71A68111D19601668EF
:104F300000213000626800F019FF002801D0801BBA
:104F40006060636823610023049A1370A8E72369F3
:104F5000320006990598079DA847431CAAD02368EC
:104F60009B0715D4099BE0689842A5DA1800A3E7CF
:104F70002200012306990598079E1932B047431C69
:104F800098D00135E368099A9B1AAB42F0DCE9E757
:104F90000025F7E74E7600085F760008002370B51D
:104FA000064D040008002B6002F02AFA431C03D1CE
:104FB0002B68002B00D0236070BDC046F019002084
:104FC0000EB400B50B499CB01DAB02900690079142
:104FD00004910948094904CB0591006802A901938D
:104FE00001F0DEFA0023029A13701CB008BC03B073
:104FF0001847C046FFFFFF7F0C0000200802FFFF9C
:10500000020010B5137814000132002BFAD1CA5CEB
:10501000E2540133002AFAD110BDF0B506000B6945
:10502000326987B0002003919A4265DB013B9C0006
:1050300000930B00143305931B19049333001433AE
:1050400002931C19049B27681B6838005D1C29000B
:105050000193FBF775F80190AF4224D30025AC46CD
:105060000298059F08CF019A99B251431B0C5343F4
:1050700049190A0C9B18026889B292B26244521A0A
:1050800001681D0C090C9BB2CB1A11145B18191482
:1050900092B21B041A43049B8C4604C0BB42E1D26B
:1050A0002368002B30D03000039901F0FFF800286E
:1050B00021DB30000024019B03990133019314305C
:1050C0001431036820C99AB21419AAB2A21A1B0C8F
:1050D0002D0C14145B1B1B191C1492B21B041343DC
:1050E00008C0049B8B42ECD2009B029A9B00D31811
:1050F0001A68002A15D0019807B0F0BD2368002B6C
:1051000006D1009B013B0093029B043CA342F5D3D4
:10511000009B3361C7E71A68002A06D1009A013A5A
:105120000092029A043B9A42F5D3009B3361E2E776
:10513000F0B59DB002920393029B039C08930994DF
:10514000446A0700259D002C0ED11020FFF7BEF900
:10515000021E786204D1EA21C74BC84801F020FB47
:10516000446084600460C4607B6A196800290AD0C6
:105170005A68012393404A608B60380000F056FE65
:1051800000227B6A1A60039B002B20DA01232B602C
:10519000039B5B005B080993099DB94BB84A2B4000
:1051A000934217D1B74B249A28031360029B000B3C
:1051B000184301D100F0BFFDB348269B0690002B99
:1051C00002D0B24B269A136006981DB0F0BD0023A2
:1051D0002B60E1E7089B099C129313941298139992
:1051E00000220023FBF732F9041E09D00123249A80
:1051F0001360A74B0693269B002BE5D0A54BE1E758
:105200001AAB01931BAB00933800129A139B01F069
:1052100001F96E000590760D00D17CE0129813998B
:10522000139B9D4A1B031B0B1A4311009B4B1894A5
:10523000F61800229A4BFCF7E3FA9A4A9A4BFCF7CD
:1052400071F89A4A9A4BFBF72FF9040030000D00D1
:10525000FCF7BCFE974A984BFCF764F802000B0081
:1052600020002900FBF720F904000D00FCF778FE70
:1052700000220290002320002900FBF7EDF800280F
:105280000BD00298FCF7A2FE2B002200FBF7DEF801
:1052900043425841029B1B1A029301231693029B1F
:1052A000162B0FD812981399DA00844B9B181A68A2
:1052B0005B68FBF7D1F8002849D0029B013B0293C1
:1052C000002316931A9B9E1B00230A933300013B75
:1052D0000D9304D501239B1B0A9300230D93029B7E
:1052E000002B36DB029A0D9B944663440D930023FA
:1052F00015920E93229B0124092B64D8052B02DD05
:105300000024043B2293229B981E032864D8FAF7BA
:1053100003FF293836581A9B1B9A9E18684BF218BF
:10532000202A0FDD40239B1A9D40664B0298F318FC
:10533000D8402843FCF77AFE0123634C013E09194B
:10534000189376E7202302989B1A9840F2E716906C
:10535000B8E70A9B029A9B1A0A9353420E930023C2
:105360001593C7E700230F93239B0C930793002B00
:1053700013DC01231A000C93079323920DE0012301
:10538000F1E70023239A0F939446029B63440C9306
:1053900001330793002B00DC01230022786A42606E
:1053A00004321500143541689D4219D9380000F0C7
:1053B000F9FC0690002817D1D5210200434B490083
:1053C000CBE60123DEE700230F942293013B0C93ED
:1053D000079300221333D0E701230F93023BF6E734
:1053E000013141605200DCE77B6A069A1A60079B34
:1053F0000E2B00D9EBE0002C00D1E8E0029B002B43
:1054000068DD1A000F212D4B0A40D2009B181D6841
:105410005E68029B1C1102231093029BDB050BD5D7
:105420002B4B0C401A6A5B6A12981399FBF778FBB6
:105430000323089009911093254B1493002C08D155
:10544000089809992A003300FBF76AFB0890099134
:105450005CE001231C420BD0109B28000133109309
:10546000149B31001A685B68FBF75CFF05000E00B7
:10547000149B64100833E0E77D76000894760008FA
:105480000000F07F0F270000797600087C76000886
:105490004C7600084D7600080000F03F01FCFFFF4D
:1054A0000000F83F61436F63A787D23FB3C8608BAA
:1054B000288AC63FFB799F501344D33F807700086A
:1054C0003204000012040000000010FEED76000817
:1054D0005877000802231093029B002B16D01298D5
:1054E00013995C420F23B64A2340DB00D3181A6895
:1054F0005B68FBF717FF0126002308900991B14D67
:105500002411002C00D094E0002B9FD1169B002B7F
:1055100000D19BE0089C099D002220002900AA4B95
:10552000FAF79AFF002800D190E0079B002B00D1EA
:105530008CE00C9B002B46DD029B00222000290002
:105540005E1EA24BFBF7EEFE109B08900991013303
:1055500010930C9B1098089C099D1493FCF736FD42
:1055600022002B00FBF7DEFE0022994BFAF79CFF8E
:1055700010901191109A119B08920993954A119BD2
:105580009446634417930993149B002B61D1002226
:1055900020002900904BFCF733F9089A179B040070
:1055A0000D00FAF76DFF002800D0AFE28B4811998B
:1055B000844661440B0020002900089AFAF74CFF4A
:1055C000002800D09FE2129B139C089309941B9B18
:1055D000002B00DA72E1029A0E2A00DD6EE1784BB0
:1055E000D2009B185C681B680A930B94239B002BCA
:1055F00000DBF7E0079B002B00DDF3E000D082E248
:105600000A980B990022744BFBF78CFE089A099BB1
:10561000FAF740FF079E3500002800D059E2069BAC
:10562000069A0133089331231370029B01330293CE
:1056300054E2344207D0109B013310932A686B6800
:10564000FBF770FE3300641008355AE7029E079B93
:1056500080E7149B0F995A1E594BD2009B181A6869
:105660005B68002951D000205D49FBF759FA089A80
:10567000099BFCF7C5F8069A069B94461793149B62
:10568000109011916344199329002000FCF768FCE5
:105690001490FCF79BFC02000B0020002900FCF793
:1056A000AFF8179B179A01330893149B040030330B
:1056B0001370109A119B0D00FAF7CEFE002875D1D9
:1056C00022002B0000204049FCF79AF8109A119B09
:1056D000FAF7C2FE002800D0D2E0199B089A934244
:1056E00000D170E7109811990022384BFBF71AFE91
:1056F000364B10901191002220002900FBF712FE7A
:10570000089B04000D001793BEE708980999FBF762
:1057100009FE069A069B94460893149B10901191DB
:105720006344199329002000FCF71AFC1790FCF73A
:105730004DFC02000B0020002900FCF761F8179BCC
:10574000089A303313701300199A013304000D00C6
:10575000089393422CD110981199069A149B944661
:105760006344002208931E4BFAF79EFE02000B00D2
:1057700020002900FAF784FE002800D080E0109A6B
:10578000119B00201649FCF73BF802000B0020009B
:105790002900FAF761FE002800D114E7089B1A00DF
:1057A000013A08921278302AF8D00893029655E010
:1057B0000022064BFBF7B6FD04000D00B2E7C04621
:1057C00080770008587700080000F03F0000244070
:1057D00000001C400000C0FC000014400000C07C21
:1057E0000000E03F079B069E013B9B190C93089C21
:1057F000099D0A9A0B9B20002900FBF791F9FCF701
:10580000AFFB0790FCF7E2FB0A9A0B9BFBF78AFDC4
:1058100002000B0020002900FBF7F2FF3300079A7B
:10582000013630321A700C9A08969A4239D1020029
:105830000B00FAF739FE0A9A0B9B04000D00FAF7E9
:105840001FFE00281BD10A9A0B9B20002900FAF7A3
:10585000FDFD002802D0079BDB0710D43800059916
:1058600000F0E4FA0023089A02981370249B013098
:105870001860269B002B00D1A6E41A60A4E4029EC7
:10588000089B0893013B1A78392A06D1069A9A4256
:10589000F7D13022069901360A701A7801321A704F
:1058A00084E70022AA4BFBF73DFD00220023040001
:1058B0000D00FAF7CBFD00289BD0CFE70F9D0E9E81
:1058C0000A9C002D12D0229A012A66DC189A002A1E
:1058D0005DD0A04A9B180A9A0121D2180A920D9A0B
:1058E0003800D3180D9300F051FB0500002C0EDD9D
:1058F0000D9B002B0BDD0D9A2300944200DD13005D
:105900000A9AE41AD21A0A920D9AD31A0D930E9B90
:10591000002B1FD00F9B002B54D0002E11DD29002F
:105920003200380000F0F8FB059A0100050038004D
:1059300000F042FB05991490380000F077FA149BB0
:1059400005930E9B9A1BB34204D03800059900F0D2
:10595000E3FB05900121380000F018FB159B0600C1
:10596000002B31DD1A000100380000F0D5FB229B2E
:105970000600012B2DDD00230E93336903339B00BA
:10598000F318586800F0BAFA2023181A39E03623C1
:105990001A9A0E9E0A9C9B1A9DE7079B5E1E0E9B01
:1059A000B34207DB9E1B079B0A9C002B93DAE41A89
:1059B000002390E70E9B159AF31AD3180E961593B1
:1059C0000026F0E70E9AC0E700230E93229B012BDE
:1059D00013DC00230E93089B002B0ED1099B1B03A5
:1059E0000BD15D4B099A134207D00A9B01330A93EE
:1059F0000D9B01330D9301230E93159B0120002B6A
:105A0000BBD10D9B1F22181803001340104246D033
:105A10000132D21A042A3FDD1C22D31A0A9AE41852
:105A2000D2180A920D9AD3180D930A9B002B05DD0C
:105A30001A003800059900F0CBFB05900D9B002B58
:105A400005DD31001A00380000F0C2FB0600169B8D
:105A5000002B26D03100059800F028FC002820DA21
:105A6000029B0A22013B029338000023059900F0B3
:105A700001FA0F9B0590002B00D166E1002329005D
:105A80000A22380000F0F6F90C9B0500002B47DCD9
:105A9000229B022B0DDC43E0042AC6D013001C33EA
:105AA000BCE7079B002B35DC229B022B32DD079BDA
:105AB0000C930C9B002B0CD131000522380000F018
:105AC000D9F906000100059800F0F0FB002800DD80
:105AD000A5E5239BDB430293069B0893002431003A
